{
  "_format": "hh-sol-artifact-1",
  "contractName": "DehiddenCollections",
  "sourceName": "contracts/DehiddenNFT.sol",
  "abi": [
    {
      "inputs": [],
      "stateMutability": "nonpayable",
      "type": "constructor"
    },
    {
      "anonymous": false,
      "inputs": [
        {
          "indexed": true,
          "internalType": "address",
          "name": "owner",
          "type": "address"
        },
        {
          "indexed": true,
          "internalType": "address",
          "name": "approved",
          "type": "address"
        },
        {
          "indexed": true,
          "internalType": "uint256",
          "name": "tokenId",
          "type": "uint256"
        }
      ],
      "name": "Approval",
      "type": "event"
    },
    {
      "anonymous": false,
      "inputs": [
        {
          "indexed": true,
          "internalType": "address",
          "name": "owner",
          "type": "address"
        },
        {
          "indexed": true,
          "internalType": "address",
          "name": "operator",
          "type": "address"
        },
        {
          "indexed": false,
          "internalType": "bool",
          "name": "approved",
          "type": "bool"
        }
      ],
      "name": "ApprovalForAll",
      "type": "event"
    },
    {
      "anonymous": false,
      "inputs": [
        {
          "indexed": true,
          "internalType": "address",
          "name": "from",
          "type": "address"
        },
        {
          "indexed": true,
          "internalType": "address",
          "name": "to",
          "type": "address"
        },
        {
          "indexed": true,
          "internalType": "uint256",
          "name": "tokenId",
          "type": "uint256"
        }
      ],
      "name": "Transfer",
      "type": "event"
    },
    {
      "inputs": [
        {
          "internalType": "address",
          "name": "to",
          "type": "address"
        },
        {
          "internalType": "uint256",
          "name": "tokenId",
          "type": "uint256"
        }
      ],
      "name": "approve",
      "outputs": [],
      "stateMutability": "nonpayable",
      "type": "function"
    },
    {
      "inputs": [
        {
          "internalType": "address",
          "name": "owner",
          "type": "address"
        }
      ],
      "name": "balanceOf",
      "outputs": [
        {
          "internalType": "uint256",
          "name": "",
          "type": "uint256"
        }
      ],
      "stateMutability": "view",
      "type": "function"
    },
    {
      "inputs": [
        {
          "internalType": "uint256",
          "name": "tokenId",
          "type": "uint256"
        }
      ],
      "name": "getApproved",
      "outputs": [
        {
          "internalType": "address",
          "name": "",
          "type": "address"
        }
      ],
      "stateMutability": "view",
      "type": "function"
    },
    {
      "inputs": [
        {
          "internalType": "address",
          "name": "owner",
          "type": "address"
        },
        {
          "internalType": "address",
          "name": "operator",
          "type": "address"
        }
      ],
      "name": "isApprovedForAll",
      "outputs": [
        {
          "internalType": "bool",
          "name": "",
          "type": "bool"
        }
      ],
      "stateMutability": "view",
      "type": "function"
    },
    {
      "inputs": [],
      "name": "makeDehiddenNFT",
      "outputs": [],
      "stateMutability": "nonpayable",
      "type": "function"
    },
    {
      "inputs": [],
      "name": "name",
      "outputs": [
        {
          "internalType": "string",
          "name": "",
          "type": "string"
        }
      ],
      "stateMutability": "view",
      "type": "function"
    },
    {
      "inputs": [
        {
          "internalType": "uint256",
          "name": "tokenId",
          "type": "uint256"
        }
      ],
      "name": "ownerOf",
      "outputs": [
        {
          "internalType": "address",
          "name": "",
          "type": "address"
        }
      ],
      "stateMutability": "view",
      "type": "function"
    },
    {
      "inputs": [
        {
          "internalType": "address",
          "name": "from",
          "type": "address"
        },
        {
          "internalType": "address",
          "name": "to",
          "type": "address"
        },
        {
          "internalType": "uint256",
          "name": "tokenId",
          "type": "uint256"
        }
      ],
      "name": "safeTransferFrom",
      "outputs": [],
      "stateMutability": "nonpayable",
      "type": "function"
    },
    {
      "inputs": [
        {
          "internalType": "address",
          "name": "from",
          "type": "address"
        },
        {
          "internalType": "address",
          "name": "to",
          "type": "address"
        },
        {
          "internalType": "uint256",
          "name": "tokenId",
          "type": "uint256"
        },
        {
          "internalType": "bytes",
          "name": "_data",
          "type": "bytes"
        }
      ],
      "name": "safeTransferFrom",
      "outputs": [],
      "stateMutability": "nonpayable",
      "type": "function"
    },
    {
      "inputs": [
        {
          "internalType": "address",
          "name": "operator",
          "type": "address"
        },
        {
          "internalType": "bool",
          "name": "approved",
          "type": "bool"
        }
      ],
      "name": "setApprovalForAll",
      "outputs": [],
      "stateMutability": "nonpayable",
      "type": "function"
    },
    {
      "inputs": [
        {
          "internalType": "bytes4",
          "name": "interfaceId",
          "type": "bytes4"
        }
      ],
      "name": "supportsInterface",
      "outputs": [
        {
          "internalType": "bool",
          "name": "",
          "type": "bool"
        }
      ],
      "stateMutability": "view",
      "type": "function"
    },
    {
      "inputs": [],
      "name": "symbol",
      "outputs": [
        {
          "internalType": "string",
          "name": "",
          "type": "string"
        }
      ],
      "stateMutability": "view",
      "type": "function"
    },
    {
      "inputs": [
        {
          "internalType": "uint256",
          "name": "index",
          "type": "uint256"
        }
      ],
      "name": "tokenByIndex",
      "outputs": [
        {
          "internalType": "uint256",
          "name": "",
          "type": "uint256"
        }
      ],
      "stateMutability": "view",
      "type": "function"
    },
    {
      "inputs": [
        {
          "internalType": "address",
          "name": "owner",
          "type": "address"
        },
        {
          "internalType": "uint256",
          "name": "index",
          "type": "uint256"
        }
      ],
      "name": "tokenOfOwnerByIndex",
      "outputs": [
        {
          "internalType": "uint256",
          "name": "",
          "type": "uint256"
        }
      ],
      "stateMutability": "view",
      "type": "function"
    },
    {
      "inputs": [
        {
          "internalType": "uint256",
          "name": "tokenId",
          "type": "uint256"
        }
      ],
      "name": "tokenURI",
      "outputs": [
        {
          "internalType": "string",
          "name": "",
          "type": "string"
        }
      ],
      "stateMutability": "view",
      "type": "function"
    },
    {
      "inputs": [],
      "name": "totalSupply",
      "outputs": [
        {
          "internalType": "uint256",
          "name": "",
          "type": "uint256"
        }
      ],
      "stateMutability": "view",
      "type": "function"
    },
    {
      "inputs": [
        {
          "internalType": "address",
          "name": "from",
          "type": "address"
        },
        {
          "internalType": "address",
          "name": "to",
          "type": "address"
        },
        {
          "internalType": "uint256",
          "name": "tokenId",
          "type": "uint256"
        }
      ],
      "name": "transferFrom",
      "outputs": [],
      "stateMutability": "nonpayable",
      "type": "function"
    }
  ],
  "bytecode": "0x6080604052610bb8600c553480156200001757600080fd5b506040518060400160405280601481526020017f446568696464656e20436f6c6c656374696f6e730000000000000000000000008152506040518060400160405280600381526020017f44484e000000000000000000000000000000000000000000000000000000000081525081600090805190602001906200009c929190620000be565b508060019080519060200190620000b5929190620000be565b505050620001d3565b828054620000cc906200016e565b90600052602060002090601f016020900481019282620000f057600085556200013c565b82601f106200010b57805160ff19168380011785556200013c565b828001600101855582156200013c579182015b828111156200013b5782518255916020019190600101906200011e565b5b5090506200014b91906200014f565b5090565b5b808211156200016a57600081600090555060010162000150565b5090565b600060028204905060018216806200018757607f821691505b602082108114156200019e576200019d620001a4565b5b50919050565b7f4e487b7100000000000000000000000000000000000000000000000000000000600052602260045260246000fd5b61352580620001e36000396000f3fe608060405234801561001057600080fd5b506004361061010b5760003560e01c80634f6ccce7116100a2578063a22cb46511610071578063a22cb465146102de578063a34a9bd9146102fa578063b88d4fde14610304578063c87b56dd14610320578063e985e9c5146103505761010b565b80634f6ccce7146102305780636352211e1461026057806370a082311461029057806395d89b41146102c05761010b565b806318160ddd116100de57806318160ddd146101aa57806323b872dd146101c85780632f745c59146101e457806342842e0e146102145761010b565b806301ffc9a71461011057806306fdde0314610140578063081812fc1461015e578063095ea7b31461018e575b600080fd5b61012a6004803603810190610125919061239f565b610380565b6040516101379190612831565b60405180910390f35b610148610392565b604051610155919061284c565b60405180910390f35b610178600480360381019061017391906123f1565b610424565b60405161018591906127ca565b60405180910390f35b6101a860048036038101906101a39190612363565b6104a9565b005b6101b26105c1565b6040516101bf9190612aee565b60405180910390f35b6101e260048036038101906101dd919061225d565b6105ce565b005b6101fe60048036038101906101f99190612363565b61062e565b60405161020b9190612aee565b60405180910390f35b61022e6004803603810190610229919061225d565b6106d3565b005b61024a600480360381019061024591906123f1565b6106f3565b6040516102579190612aee565b60405180910390f35b61027a600480360381019061027591906123f1565b61078a565b60405161028791906127ca565b60405180910390f35b6102aa60048036038101906102a591906121f8565b61083c565b6040516102b79190612aee565b60405180910390f35b6102c86108f4565b6040516102d5919061284c565b60405180910390f35b6102f860048036038101906102f39190612327565b610986565b005b61030261099c565b005b61031e600480360381019061031991906122ac565b610a73565b005b61033a600480360381019061033591906123f1565b610ad5565b604051610347919061284c565b60405180910390f35b61036a60048036038101906103659190612221565b610ae7565b6040516103779190612831565b60405180910390f35b600061038b82610b7b565b9050919050565b6060600080546103a190612d13565b80601f01602080910402602001604051908101604052809291908181526020018280546103cd90612d13565b801561041a5780601f106103ef5761010080835404028352916020019161041a565b820191906000526020600020905b8154815290600101906020018083116103fd57829003601f168201915b5050505050905090565b600061042f82610bf5565b61046e576040517f08c379a000000000000000000000000000000000000000000000000000000000815260040161046590612a4e565b60405180910390fd5b6004600083815260200190815260200160002060009054906101000a900473ffffffffffffffffffffffffffffffffffffffff169050919050565b60006104b48261078a565b90508073ffffffffffffffffffffffffffffffffffffffff168373ffffffffffffffffffffffffffffffffffffffff161415610525576040517f08c379a000000000000000000000000000000000000000000000000000000000815260040161051c90612a8e565b60405180910390fd5b8073ffffffffffffffffffffffffffffffffffffffff16610544610c61565b73ffffffffffffffffffffffffffffffffffffffff16148061057357506105728161056d610c61565b610ae7565b5b6105b2576040517f08c379a00000000000000000000000000000000000000000000000000000000081526004016105a99061298e565b60405180910390fd5b6105bc8383610c69565b505050565b6000600880549050905090565b6105df6105d9610c61565b82610d22565b61061e576040517f08c379a000000000000000000000000000000000000000000000000000000000815260040161061590612aae565b60405180910390fd5b610629838383610e00565b505050565b60006106398361083c565b821061067a576040517f08c379a00000000000000000000000000000000000000000000000000000000081526004016106719061286e565b60405180910390fd5b600660008473ffffffffffffffffffffffffffffffffffffffff1673ffffffffffffffffffffffffffffffffffffffff168152602001908152602001600020600083815260200190815260200160002054905092915050565b6106ee83838360405180602001604052806000815250610a73565b505050565b60006106fd6105c1565b821061073e576040517f08c379a000000000000000000000000000000000000000000000000000000000815260040161073590612ace565b60405180910390fd5b60088281548110610778577f4e487b7100000000000000000000000000000000000000000000000000000000600052603260045260246000fd5b90600052602060002001549050919050565b6000806002600084815260200190815260200160002060009054906101000a900473ffffffffffffffffffffffffffffffffffffffff169050600073ffffffffffffffffffffffffffffffffffffffff168173ffffffffffffffffffffffffffffffffffffffff161415610833576040517f08c379a000000000000000000000000000000000000000000000000000000000815260040161082a906129ce565b60405180910390fd5b80915050919050565b60008073ffffffffffffffffffffffffffffffffffffffff168273ffffffffffffffffffffffffffffffffffffffff1614156108ad576040517f08c379a00000000000000000000000000000000000000000000000000000000081526004016108a4906129ae565b60405180910390fd5b600360008373ffffffffffffffffffffffffffffffffffffffff1673ffffffffffffffffffffffffffffffffffffffff168152602001908152602001600020549050919050565b60606001805461090390612d13565b80601f016020809104026020016040519081016040528092919081815260200182805461092f90612d13565b801561097c5780601f106109515761010080835404028352916020019161097c565b820191906000526020600020905b81548152906001019060200180831161095f57829003601f168201915b5050505050905090565b610998610991610c61565b8383611067565b5050565b60006109a8600b6111d4565b9050600c548111156109ef576040517f08c379a00000000000000000000000000000000000000000000000000000000081526004016109e69061290e565b60405180910390fd5b60006109fa3361083c565b14610a3a576040517f08c379a0000000000000000000000000000000000000000000000000000000008152600401610a31906128ee565b60405180910390fd5b610a44600b6111e2565b610a4e33826111f8565b610a70816040518060800160405280604281526020016134ae60429139611216565b50565b610a84610a7e610c61565b83610d22565b610ac3576040517f08c379a0000000000000000000000000000000000000000000000000000000008152600401610aba90612aae565b60405180910390fd5b610acf8484848461128a565b50505050565b6060610ae0826112e6565b9050919050565b6000600560008473ffffffffffffffffffffffffffffffffffffffff1673ffffffffffffffffffffffffffffffffffffffff16815260200190815260200160002060008373ffffffffffffffffffffffffffffffffffffffff1673ffffffffffffffffffffffffffffffffffffffff16815260200190815260200160002060009054906101000a900460ff16905092915050565b60007f780e9d63000000000000000000000000000000000000000000000000000000007bffffffffffffffffffffffffffffffffffffffffffffffffffffffff1916827bffffffffffffffffffffffffffffffffffffffffffffffffffffffff19161480610bee5750610bed82611438565b5b9050919050565b60008073ffffffffffffffffffffffffffffffffffffffff166002600084815260200190815260200160002060009054906101000a900473ffffffffffffffffffffffffffffffffffffffff1673ffffffffffffffffffffffffffffffffffffffff1614159050919050565b600033905090565b816004600083815260200190815260200160002060006101000a81548173ffffffffffffffffffffffffffffffffffffffff021916908373ffffffffffffffffffffffffffffffffffffffff160217905550808273ffffffffffffffffffffffffffffffffffffffff16610cdc8361078a565b73ffffffffffffffffffffffffffffffffffffffff167f8c5be1e5ebec7d5bd14f71427d1e84f3dd0314c0f7b2291e5b200ac8c7c3b92560405160405180910390a45050565b6000610d2d82610bf5565b610d6c576040517f08c379a0000000000000000000000000000000000000000000000000000000008152600401610d639061296e565b60405180910390fd5b6000610d778361078a565b90508073ffffffffffffffffffffffffffffffffffffffff168473ffffffffffffffffffffffffffffffffffffffff161480610db95750610db88185610ae7565b5b80610df757508373ffffffffffffffffffffffffffffffffffffffff16610ddf84610424565b73ffffffffffffffffffffffffffffffffffffffff16145b91505092915050565b8273ffffffffffffffffffffffffffffffffffffffff16610e208261078a565b73ffffffffffffffffffffffffffffffffffffffff1614610e76576040517f08c379a0000000000000000000000000000000000000000000000000000000008152600401610e6d906128ae565b60405180910390fd5b600073ffffffffffffffffffffffffffffffffffffffff168273ffffffffffffffffffffffffffffffffffffffff161415610ee6576040517f08c379a0000000000000000000000000000000000000000000000000000000008152600401610edd9061292e565b60405180910390fd5b610ef183838361151a565b610efc600082610c69565b6001600360008573ffffffffffffffffffffffffffffffffffffffff1673ffffffffffffffffffffffffffffffffffffffff1681526020019081526020016000206000828254610f4c9190612c29565b925050819055506001600360008473ffffffffffffffffffffffffffffffffffffffff1673ffffffffffffffffffffffffffffffffffffffff1681526020019081526020016000206000828254610fa39190612ba2565b92505081905550816002600083815260200190815260200160002060006101000a81548173ffffffffffffffffffffffffffffffffffffffff021916908373ffffffffffffffffffffffffffffffffffffffff160217905550808273ffffffffffffffffffffffffffffffffffffffff168473ffffffffffffffffffffffffffffffffffffffff167fddf252ad1be2c89b69c2b068fc378daa952ba7f163c4a11628f55a4df523b3ef60405160405180910390a461106283838361152a565b505050565b8173ffffffffffffffffffffffffffffffffffffffff168373ffffffffffffffffffffffffffffffffffffffff1614156110d6576040517f08c379a00000000000000000000000000000000000000000000000000000000081526004016110cd9061294e565b60405180910390fd5b80600560008573ffffffffffffffffffffffffffffffffffffffff1673ffffffffffffffffffffffffffffffffffffffff16815260200190815260200160002060008473ffffffffffffffffffffffffffffffffffffffff1673ffffffffffffffffffffffffffffffffffffffff16815260200190815260200160002060006101000a81548160ff0219169083151502179055508173ffffffffffffffffffffffffffffffffffffffff168373ffffffffffffffffffffffffffffffffffffffff167f17307eab39ab6107e8899845ad3d59bd9653f200f220920489ca2b5937696c31836040516111c79190612831565b60405180910390a3505050565b600081600001549050919050565b6001816000016000828254019250508190555050565b61121282826040518060200160405280600081525061152f565b5050565b61121f82610bf5565b61125e576040517f08c379a0000000000000000000000000000000000000000000000000000000008152600401611255906129ee565b60405180910390fd5b80600a60008481526020019081526020016000209080519060200190611285929190612084565b505050565b611295848484610e00565b6112a18484848461158a565b6112e0576040517f08c379a00000000000000000000000000000000000000000000000000000000081526004016112d79061288e565b60405180910390fd5b50505050565b60606112f182610bf5565b611330576040517f08c379a000000000000000000000000000000000000000000000000000000000815260040161132790612a2e565b60405180910390fd5b6000600a6000848152602001908152602001600020805461135090612d13565b80601f016020809104026020016040519081016040528092919081815260200182805461137c90612d13565b80156113c95780601f1061139e576101008083540402835291602001916113c9565b820191906000526020600020905b8154815290600101906020018083116113ac57829003601f168201915b5050505050905060006113da611721565b90506000815114156113f0578192505050611433565b60008251111561142557808260405160200161140d9291906127a6565b60405160208183030381529060405292505050611433565b61142e84611738565b925050505b919050565b60007f80ac58cd000000000000000000000000000000000000000000000000000000007bffffffffffffffffffffffffffffffffffffffffffffffffffffffff1916827bffffffffffffffffffffffffffffffffffffffffffffffffffffffff1916148061150357507f5b5e139f000000000000000000000000000000000000000000000000000000007bffffffffffffffffffffffffffffffffffffffffffffffffffffffff1916827bffffffffffffffffffffffffffffffffffffffffffffffffffffffff1916145b806115135750611512826117df565b5b9050919050565b611525838383611849565b505050565b505050565b611539838361195d565b611546600084848461158a565b611585576040517f08c379a000000000000000000000000000000000000000000000000000000000815260040161157c9061288e565b60405180910390fd5b505050565b60006115ab8473ffffffffffffffffffffffffffffffffffffffff16611b37565b15611714578373ffffffffffffffffffffffffffffffffffffffff1663150b7a026115d4610c61565b8786866040518563ffffffff1660e01b81526004016115f694939291906127e5565b602060405180830381600087803b15801561161057600080fd5b505af192505050801561164157506040513d601f19601f8201168201806040525081019061163e91906123c8565b60015b6116c4573d8060008114611671576040519150601f19603f3d011682016040523d82523d6000602084013e611676565b606091505b506000815114156116bc576040517f08c379a00000000000000000000000000000000000000000000000000000000081526004016116b39061288e565b60405180910390fd5b805181602001fd5b63150b7a0260e01b7bffffffffffffffffffffffffffffffffffffffffffffffffffffffff1916817bffffffffffffffffffffffffffffffffffffffffffffffffffffffff191614915050611719565b600190505b949350505050565b606060405180602001604052806000815250905090565b606061174382610bf5565b611782576040517f08c379a000000000000000000000000000000000000000000000000000000000815260040161177990612a6e565b60405180910390fd5b600061178c611721565b905060008151116117ac57604051806020016040528060008152506117d7565b806117b684611b5a565b6040516020016117c79291906127a6565b6040516020818303038152906040525b915050919050565b60007f01ffc9a7000000000000000000000000000000000000000000000000000000007bffffffffffffffffffffffffffffffffffffffffffffffffffffffff1916827bffffffffffffffffffffffffffffffffffffffffffffffffffffffff1916149050919050565b611854838383611d07565b600073ffffffffffffffffffffffffffffffffffffffff168373ffffffffffffffffffffffffffffffffffffffff1614156118975761189281611d0c565b6118d6565b8173ffffffffffffffffffffffffffffffffffffffff168373ffffffffffffffffffffffffffffffffffffffff16146118d5576118d48382611d55565b5b5b600073ffffffffffffffffffffffffffffffffffffffff168273ffffffffffffffffffffffffffffffffffffffff1614156119195761191481611ec2565b611958565b8273ffffffffffffffffffffffffffffffffffffffff168273ffffffffffffffffffffffffffffffffffffffff1614611957576119568282612005565b5b5b505050565b600073ffffffffffffffffffffffffffffffffffffffff168273ffffffffffffffffffffffffffffffffffffffff1614156119cd576040517f08c379a00000000000000000000000000000000000000000000000000000000081526004016119c490612a0e565b60405180910390fd5b6119d681610bf5565b15611a16576040517f08c379a0000000000000000000000000000000000000000000000000000000008152600401611a0d906128ce565b60405180910390fd5b611a226000838361151a565b6001600360008473ffffffffffffffffffffffffffffffffffffffff1673ffffffffffffffffffffffffffffffffffffffff1681526020019081526020016000206000828254611a729190612ba2565b92505081905550816002600083815260200190815260200160002060006101000a81548173ffffffffffffffffffffffffffffffffffffffff021916908373ffffffffffffffffffffffffffffffffffffffff160217905550808273ffffffffffffffffffffffffffffffffffffffff16600073ffffffffffffffffffffffffffffffffffffffff167fddf252ad1be2c89b69c2b068fc378daa952ba7f163c4a11628f55a4df523b3ef60405160405180910390a4611b336000838361152a565b5050565b6000808273ffffffffffffffffffffffffffffffffffffffff163b119050919050565b60606000821415611ba2576040518060400160405280600181526020017f30000000000000000000000000000000000000000000000000000000000000008152509050611d02565b600082905060005b60008214611bd4578080611bbd90612d76565b915050600a82611bcd9190612bf8565b9150611baa565b60008167ffffffffffffffff811115611c16577f4e487b7100000000000000000000000000000000000000000000000000000000600052604160045260246000fd5b6040519080825280601f01601f191660200182016040528015611c485781602001600182028036833780820191505090505b5090505b60008514611cfb57600182611c619190612c29565b9150600a85611c709190612dbf565b6030611c7c9190612ba2565b60f81b818381518110611cb8577f4e487b7100000000000000000000000000000000000000000000000000000000600052603260045260246000fd5b60200101907effffffffffffffffffffffffffffffffffffffffffffffffffffffffffffff1916908160001a905350600a85611cf49190612bf8565b9450611c4c565b8093505050505b919050565b505050565b6008805490506009600083815260200190815260200160002081905550600881908060018154018082558091505060019003906000526020600020016000909190919091505550565b60006001611d628461083c565b611d6c9190612c29565b9050600060076000848152602001908152602001600020549050818114611e51576000600660008673ffffffffffffffffffffffffffffffffffffffff1673ffffffffffffffffffffffffffffffffffffffff168152602001908152602001600020600084815260200190815260200160002054905080600660008773ffffffffffffffffffffffffffffffffffffffff1673ffffffffffffffffffffffffffffffffffffffff168152602001908152602001600020600084815260200190815260200160002081905550816007600083815260200190815260200160002081905550505b6007600084815260200190815260200160002060009055600660008573ffffffffffffffffffffffffffffffffffffffff1673ffffffffffffffffffffffffffffffffffffffff16815260200190815260200160002060008381526020019081526020016000206000905550505050565b60006001600880549050611ed69190612c29565b9050600060096000848152602001908152602001600020549050600060088381548110611f2c577f4e487b7100000000000000000000000000000000000000000000000000000000600052603260045260246000fd5b906000526020600020015490508060088381548110611f74577f4e487b7100000000000000000000000000000000000000000000000000000000600052603260045260246000fd5b906000526020600020018190555081600960008381526020019081526020016000208190555060096000858152602001908152602001600020600090556008805480611fe9577f4e487b7100000000000000000000000000000000000000000000000000000000600052603160045260246000fd5b6001900381819060005260206000200160009055905550505050565b60006120108361083c565b905081600660008573ffffffffffffffffffffffffffffffffffffffff1673ffffffffffffffffffffffffffffffffffffffff168152602001908152602001600020600083815260200190815260200160002081905550806007600084815260200190815260200160002081905550505050565b82805461209090612d13565b90600052602060002090601f0160209004810192826120b257600085556120f9565b82601f106120cb57805160ff19168380011785556120f9565b828001600101855582156120f9579182015b828111156120f85782518255916020019190600101906120dd565b5b509050612106919061210a565b5090565b5b8082111561212357600081600090555060010161210b565b5090565b600061213a61213584612b2e565b612b09565b90508281526020810184848401111561215257600080fd5b61215d848285612cd1565b509392505050565b60008135905061217481613451565b92915050565b60008135905061218981613468565b92915050565b60008135905061219e8161347f565b92915050565b6000815190506121b38161347f565b92915050565b600082601f8301126121ca57600080fd5b81356121da848260208601612127565b91505092915050565b6000813590506121f281613496565b92915050565b60006020828403121561220a57600080fd5b600061221884828501612165565b91505092915050565b6000806040838503121561223457600080fd5b600061224285828601612165565b925050602061225385828601612165565b9150509250929050565b60008060006060848603121561227257600080fd5b600061228086828701612165565b935050602061229186828701612165565b92505060406122a2868287016121e3565b9150509250925092565b600080600080608085870312156122c257600080fd5b60006122d087828801612165565b94505060206122e187828801612165565b93505060406122f2878288016121e3565b925050606085013567ffffffffffffffff81111561230f57600080fd5b61231b878288016121b9565b91505092959194509250565b6000806040838503121561233a57600080fd5b600061234885828601612165565b92505060206123598582860161217a565b9150509250929050565b6000806040838503121561237657600080fd5b600061238485828601612165565b9250506020612395858286016121e3565b9150509250929050565b6000602082840312156123b157600080fd5b60006123bf8482850161218f565b91505092915050565b6000602082840312156123da57600080fd5b60006123e8848285016121a4565b91505092915050565b60006020828403121561240357600080fd5b6000612411848285016121e3565b91505092915050565b61242381612c5d565b82525050565b61243281612c6f565b82525050565b600061244382612b5f565b61244d8185612b75565b935061245d818560208601612ce0565b61246681612eac565b840191505092915050565b600061247c82612b6a565b6124868185612b86565b9350612496818560208601612ce0565b61249f81612eac565b840191505092915050565b60006124b582612b6a565b6124bf8185612b97565b93506124cf818560208601612ce0565b80840191505092915050565b60006124e8602b83612b86565b91506124f382612ebd565b604082019050919050565b600061250b603283612b86565b915061251682612f0c565b604082019050919050565b600061252e602583612b86565b915061253982612f5b565b604082019050919050565b6000612551601c83612b86565b915061255c82612faa565b602082019050919050565b6000612574602183612b86565b915061257f82612fd3565b604082019050919050565b6000612597602083612b86565b91506125a282613022565b602082019050919050565b60006125ba602483612b86565b91506125c58261304b565b604082019050919050565b60006125dd601983612b86565b91506125e88261309a565b602082019050919050565b6000612600602c83612b86565b915061260b826130c3565b604082019050919050565b6000612623603883612b86565b915061262e82613112565b604082019050919050565b6000612646602a83612b86565b915061265182613161565b604082019050919050565b6000612669602983612b86565b9150612674826131b0565b604082019050919050565b600061268c602e83612b86565b9150612697826131ff565b604082019050919050565b60006126af602083612b86565b91506126ba8261324e565b602082019050919050565b60006126d2603183612b86565b91506126dd82613277565b604082019050919050565b60006126f5602c83612b86565b9150612700826132c6565b604082019050919050565b6000612718602f83612b86565b915061272382613315565b604082019050919050565b600061273b602183612b86565b915061274682613364565b604082019050919050565b600061275e603183612b86565b9150612769826133b3565b604082019050919050565b6000612781602c83612b86565b915061278c82613402565b604082019050919050565b6127a081612cc7565b82525050565b60006127b282856124aa565b91506127be82846124aa565b91508190509392505050565b60006020820190506127df600083018461241a565b92915050565b60006080820190506127fa600083018761241a565b612807602083018661241a565b6128146040830185612797565b81810360608301526128268184612438565b905095945050505050565b60006020820190506128466000830184612429565b92915050565b600060208201905081810360008301526128668184612471565b905092915050565b60006020820190508181036000830152612887816124db565b9050919050565b600060208201905081810360008301526128a7816124fe565b9050919050565b600060208201905081810360008301526128c781612521565b9050919050565b600060208201905081810360008301526128e781612544565b9050919050565b6000602082019050818103600083015261290781612567565b9050919050565b600060208201905081810360008301526129278161258a565b9050919050565b60006020820190508181036000830152612947816125ad565b9050919050565b60006020820190508181036000830152612967816125d0565b9050919050565b60006020820190508181036000830152612987816125f3565b9050919050565b600060208201905081810360008301526129a781612616565b9050919050565b600060208201905081810360008301526129c781612639565b9050919050565b600060208201905081810360008301526129e78161265c565b9050919050565b60006020820190508181036000830152612a078161267f565b9050919050565b60006020820190508181036000830152612a27816126a2565b9050919050565b60006020820190508181036000830152612a47816126c5565b9050919050565b60006020820190508181036000830152612a67816126e8565b9050919050565b60006020820190508181036000830152612a878161270b565b9050919050565b60006020820190508181036000830152612aa78161272e565b9050919050565b60006020820190508181036000830152612ac781612751565b9050919050565b60006020820190508181036000830152612ae781612774565b9050919050565b6000602082019050612b036000830184612797565b92915050565b6000612b13612b24565b9050612b1f8282612d45565b919050565b6000604051905090565b600067ffffffffffffffff821115612b4957612b48612e7d565b5b612b5282612eac565b9050602081019050919050565b600081519050919050565b600081519050919050565b600082825260208201905092915050565b600082825260208201905092915050565b600081905092915050565b6000612bad82612cc7565b9150612bb883612cc7565b9250827fffffffffffffffffffffffffffffffffffffffffffffffffffffffffffffffff03821115612bed57612bec612df0565b5b828201905092915050565b6000612c0382612cc7565b9150612c0e83612cc7565b925082612c1e57612c1d612e1f565b5b828204905092915050565b6000612c3482612cc7565b9150612c3f83612cc7565b925082821015612c5257612c51612df0565b5b828203905092915050565b6000612c6882612ca7565b9050919050565b60008115159050919050565b60007fffffffff0000000000000000000000000000000000000000000000000000000082169050919050565b600073ffffffffffffffffffffffffffffffffffffffff82169050919050565b6000819050919050565b82818337600083830152505050565b60005b83811015612cfe578082015181840152602081019050612ce3565b83811115612d0d576000848401525b50505050565b60006002820490506001821680612d2b57607f821691505b60208210811415612d3f57612d3e612e4e565b5b50919050565b612d4e82612eac565b810181811067ffffffffffffffff82111715612d6d57612d6c612e7d565b5b80604052505050565b6000612d8182612cc7565b91507fffffffffffffffffffffffffffffffffffffffffffffffffffffffffffffffff821415612db457612db3612df0565b5b600182019050919050565b6000612dca82612cc7565b9150612dd583612cc7565b925082612de557612de4612e1f565b5b828206905092915050565b7f4e487b7100000000000000000000000000000000000000000000000000000000600052601160045260246000fd5b7f4e487b7100000000000000000000000000000000000000000000000000000000600052601260045260246000fd5b7f4e487b7100000000000000000000000000000000000000000000000000000000600052602260045260246000fd5b7f4e487b7100000000000000000000000000000000000000000000000000000000600052604160045260246000fd5b6000601f19601f8301169050919050565b7f455243373231456e756d657261626c653a206f776e657220696e646578206f7560008201527f74206f6620626f756e6473000000000000000000000000000000000000000000602082015250565b7f4552433732313a207472616e7366657220746f206e6f6e20455243373231526560008201527f63656976657220696d706c656d656e7465720000000000000000000000000000602082015250565b7f4552433732313a207472616e736665722066726f6d20696e636f72726563742060008201527f6f776e6572000000000000000000000000000000000000000000000000000000602082015250565b7f4552433732313a20746f6b656e20616c7265616479206d696e74656400000000600082015250565b7f456163682061646472657373206d6179206f6e6c79206f776e206f6e65204e4660008201527f5400000000000000000000000000000000000000000000000000000000000000602082015250565b7f536f7272792120416c6c204e4674732068617665206265656e206d696e746564600082015250565b7f4552433732313a207472616e7366657220746f20746865207a65726f2061646460008201527f7265737300000000000000000000000000000000000000000000000000000000602082015250565b7f4552433732313a20617070726f766520746f2063616c6c657200000000000000600082015250565b7f4552433732313a206f70657261746f7220717565727920666f72206e6f6e657860008201527f697374656e7420746f6b656e0000000000000000000000000000000000000000602082015250565b7f4552433732313a20617070726f76652063616c6c6572206973206e6f74206f7760008201527f6e6572206e6f7220617070726f76656420666f7220616c6c0000000000000000602082015250565b7f4552433732313a2062616c616e636520717565727920666f7220746865207a6560008201527f726f206164647265737300000000000000000000000000000000000000000000602082015250565b7f4552433732313a206f776e657220717565727920666f72206e6f6e657869737460008201527f656e7420746f6b656e0000000000000000000000000000000000000000000000602082015250565b7f45524337323155524953746f726167653a2055524920736574206f66206e6f6e60008201527f6578697374656e7420746f6b656e000000000000000000000000000000000000602082015250565b7f4552433732313a206d696e7420746f20746865207a65726f2061646472657373600082015250565b7f45524337323155524953746f726167653a2055524920717565727920666f722060008201527f6e6f6e6578697374656e7420746f6b656e000000000000000000000000000000602082015250565b7f4552433732313a20617070726f76656420717565727920666f72206e6f6e657860008201527f697374656e7420746f6b656e0000000000000000000000000000000000000000602082015250565b7f4552433732314d657461646174613a2055524920717565727920666f72206e6f60008201527f6e6578697374656e7420746f6b656e0000000000000000000000000000000000602082015250565b7f4552433732313a20617070726f76616c20746f2063757272656e74206f776e6560008201527f7200000000000000000000000000000000000000000000000000000000000000602082015250565b7f4552433732313a207472616e736665722063616c6c6572206973206e6f74206f60008201527f776e6572206e6f7220617070726f766564000000000000000000000000000000602082015250565b7f455243373231456e756d657261626c653a20676c6f62616c20696e646578206f60008201527f7574206f6620626f756e64730000000000000000000000000000000000000000602082015250565b61345a81612c5d565b811461346557600080fd5b50565b61347181612c6f565b811461347c57600080fd5b50565b61348881612c7b565b811461349357600080fd5b50565b61349f81612cc7565b81146134aa57600080fd5b5056fe697066733a2f2f6261666b726569676e70706a777635366a63697a37326e6f7a62756462656a63366d79656a693734326c6472697574353633706236796432707269a2646970667358221220115fae940c0b8bad31de9aa0652bdf3ded4a893d18cddf1e47ccae3f8b110ead64736f6c63430008040033",
  "linkReferences": {},
  "deployedLinkReferences": {}
}